:0300000002059660
:0C059600787FE4F6D8FD7581480205DD91
:10027500434D544900434D47520041542B434D478C
:10028500523D310044570043454E470041542B43EE
:10029500454E473F00475053575A004F4B00415476
:1002A5002B434D47443D312C3400434C49500041CC
:1002B50054410D0A004341525249455200415448A8
:1002C5000D0A0041540041542B434950534855549D
:1002D5000041542B4349504D55583D300041542B56
:1002E50043495052584745543D300041542B4349EA
:1002F500505152434C4F53453D310041542B4349D6
:10030500504D4F44453D3000414C52454144590004
:1003150041542B43495053544152543D2255445066
:10032500222C223132382E3139392E3232352E31C6
:100335003237222C383038300041542B434F4C5043
:100345003D310041542B435343533D2247534D22E6
:100355000041542B434E4D493D322C310041542B25
:10036500434D47463D310041542B43454E473D31B2
:100375002C310041542B434D47533D2231353935FE
:1003850030393733313531220D0A0041542B434979
:100395005053454E44004F50454E444F4F52004335
:1003A5004C4F5345444F4F52002C452C004750525B
:1003B5004D4300B56206010800F00500000000008D
:1003C500000446B56206010800F0000000000000C8
:1003D500010024B56206010800F0020000000000DB
:1003E500000131B56206010800F0030000000000BD
:1003F500000238B56206010800F0010000000000A7
:1004050000002AB562060806001027010001004D0C
:01041500DD09
:1008AF000128001C084E4F2C526563656976652D33
:1008BF00475053210000000000000000000000001E
:0A08CF0000012D00012400012500A6
:100416001200461209BA7BFF7A0379B87D5E12098B
:10042600231207D17540FF7541027542757B017A2B
:10043600007900120622E94A4B7003020515D29094
:100446001209CF7BFF7A02797A120905401B12093D
:10045600487BFF7A02797F1200097F0D1209E17F3E
:100466000A1209E11207D180DAD2911207D175403A
:10047600FF7541027542897B017A007900120622D6
:10048600E94A4B603F1209467BFF7A02798C1209D2
:100496000540241209487BFF7A027991120009125D
:1004A60009CF1209487F0D1209E17F0A1209E112EC
:1004B60007D11207D180D1D2951208DAD294120947
:1004C600CF1207D17540FF75410275429A7B017ABA
:1004D600007900120622E94A4B600E1209461209FB
:1004E60065D2941209CF1207D112070F1208FF40E6
:1004F600151209481200037F0D1209E17F0A12093D
:10050600E11207D180E61209CF1207D175904F7517
:1005160040FF7541027542AF7B017A0079001206F1
:1005260022E94A4B60587F287E001207D57BFF7A66
:100536000279B41200091209CF7F027E001207D594
:100546007BFF7A0279BA120905401D7F3C7E0012B4
:1005560007D50527E52770020526D394C8E5269416
:100566000040DDE4F526F5271209CF1207D17BFFFF
:100576007A0279C21200097F057E001207D512079A
:100586000FE5086441600302042A12098402042A62
:10002600759850438E40538EFE53890F4389207531
:0C0036008BDC758DDCD28ED2ACD2AF22F8
:0300230002080FC1
:10080F00C0E0C083C082C0D0C2AC309902C2993060
:10081F00981CC29874002528F582E43400F583E50E
:10082F0099F00528E528D394634003752863D2AC6B
:09083F00D0D0D082D083D0E03289
:100046001200267F047E001207D51209CF801B12EC
:1000560008FF401B7BFF7A0279C81200097F0D1248
:1000660009E17F0A1209E175901C1207D180E0129E
:1000760007D11209CF75904E801B1208FF401B1244
:1000860009487BFF7A0279CB1200097F0D1209E13C
:100096007F0A1209E11207D180E01207D11209CFB7
:1000A600801B1208FF401B1209487BFF7A0279D693
:1000B6001200097F0D1209E17F0A1209E11207D128
:1000C60080E01207D11209CFD294801B1208FF409C
:1000D6001B1209487BFF7A0279E21200097F0D1292
:1000E60009E17F0A1209E11207D180E01207D11255
:1000F60009CFC294801B1208FF401B1209487BFFE0
:100106007A0279F01200097F0D1209E17F0A1209BD
:10011600E11207D180E01207D11209CFD295801BD8
:100126001208FF401B1209487BFF7A037900120070
:10013600097F0D1209E17F0A1209E11207D180E059
:100146001207D11209CFC29680247BFF7A03790D5C
:10015600120905401E1209487BFF7A037915120021
:10016600097F0D1209E17F0A1209E11209CF120770
:10017600D180D71207D11209CFD296801B1208FF61
:10018600401B1209487BFF7A03793E1200097F0D56
:100196001209E17F0A1209E11207D180E01207D1A4
:1001A6001209CFC290801B1208FF401B1209487B20
:1001B600FF7A0379481200097F0D1209E17F0A12BE
:1001C60009E11207D180E01207D11209CFC290804F
:1001D6001B1208FF401B1209487BFF7A037956124F
:1001E60000097F0D1209E17F0A1209E11207D18089
:1001F600E01207D11209CFC291801B1208FF401BE3
:100206001209487BFF7A0379621200097F0D1209F1
:10021600E17F0A1209E11207D180E01207D1120923
:10022600CF80191208FF40197F037E001207D512EE
:1002360000037F0D1209E17F0A1209E11207D1803E
:10024600E21207D11209CF80181208FF40187BFF6F
:100256007A03796C1200097F0D1209E17F0A1209EF
:0F026600E11207D180E31209481209CFC2942296
:0C09E100C2AC8F993099FDC299D2AC22B3
:060003007BFF7A0279A3E5
:10000900C2AC12076C6010F5993099FDC299740160
:0A00190029F9E43AFA80EBD2AC2298
:1009CF00C2AC7F64900000E4F0A3DFFCE4F528D212
:0109DF00AC6B
:0109E00022F4
:0608FF007BFF7A0279A0E4
:100905008B2E8A2F89308B408A4189427B017A0060
:0E0915007900120622E94A4B6002D322C32267
:0D07C8007B007A0079081200097F017E0095
:0407D5008E2E8F2FA6
:1007D900E4F530F531C3E531952FE530952E5025F7
:1007E900E4F583F582AF82AE83E4FCFD7BFF7AFFFB
:1007F900F9F8D31207B24003A380EA0531E5317055
:05080900D4053080D091
:01080E0022C7
:06094600D2967FB87E0B83
:10094C00D3EF9400EE9400400F7DDCAC051DEC70F1
:08095C00FAEF1F70EB1E80E8AA
:010964002270
:1008DA007BFF7A0379781200097F027E001207D51E
:1008EA007B017A0079001207CE7F1A1209E17F0A8A
:0508FA007E000207D59D
:100965007BFF7A0379781200097F027E001207D592
:0F0975001207C87F1A1209E17F0A7E000207D518
:100984007BFF7A0379901200097F027E001207D55B
:0F0994001207C87F1A1209E17F0A7E000207D5F9
:10070F007540FF75410375429B7B017A007900129A
:10071F000622E94A4B6020C2B77F027E001207D53E
:10072F00D2B77F027E001207D5C2B77F027E0012BA
:10073F0007D5D2B71209CF7540FF7541037542A493
:10074F007B017A007900120622E94A4B600EC2B78C
:0D075F007F047E001207D5D2B71209CF2209
:1009BA00538EF7759A50438E04759CDC438E1075DE
:0509CA00AF01D2AF22D5
:030043000206A40E
:1006A400C0E0C0F0C083C082C0D075D000C000C01C
:0D06B40001C002C003C004C005C006C0079D
:1006C100AF9A530701EF64017026539AFEAF9B74F2
:1006D10064252DF582E43400F583EFF0BF24037522
:1006E1002D00052DE52DD3943E40081208488003C6
:0306F100539AFD1C
:1006F400D007D006D005D004D003D002D001D0005A
:0B070400D0D0D082D083D0F0D0E03203
:100848007540FF7541037542AE7B017A00796412E9
:100858000622E94A4B601D7540FF7541037542B297
:100868007B017A007964120622E94A4B6006120875
:050878007DE4F52D22D6
:1009A300E4F5AF539AFD8F9BAE9A530602EE60F8BF
:0609B300539AFD75AF012F
:0109B900221B
:060923008B2E8A2F8930A3
:10092900E4FCECC39D5015AB2EAA2FA9308C82751F
:0C0939008300120785FF1209A30C80E662
:01094500228F
:10087D00E4FE74642EF582E43400F583E0B44102A5
:10088D00AF060EBE16ECAE07E4FD74642EF582E4E1
:10089D003400F583E0FC74082DF8A6040E0DBD1C84
:0108AD00E961
:0108AE002227
:1005A200020416E493A3F8E493A34003F68001F255
:1005B20008DFF48029E493A3F85407240CC8C3335A
:1005C200C4540F4420C8834004F456800146F6DF29
:1005D200E4800B01020408102040809008AFE47E02
:1005E200019360BCA3FF543F30E509541FFEE4931E
:1005F200A360010ECF54C025E060A840B8E493A3E5
:10060200FAE493A3F8E493A3C8C582C8CAC583CA0F
:10061200F0A3C8C582C8CAC583CADFE9DEE780BEC7
:0108D900001E
:10076C00BB010689828A83E0225002E722BBFE028B
:09077C00E32289828A83E49322BE
:10078500BB010CE58229F582E5833AF583E0225029
:1007950006E92582F8E622BBFE06E92582F8E22273
:0D07A500E58229F582E5833AF583E493228D
:1007B200EB9FF5F0EA9E42F0E99D42F0EC6480C8BE
:0607C20064809845F0225E
:100622008B3D8A3E893FAB40AA41A94212076C60CA
:1006320063AB3DAA3EA93F12076C605F85404385CC
:1006420041448542458B468A478948AB43AA44A91F
:100652004512076CFF6023AB46AA47A94812076CF4
:100662006F7017042545F545E43544F544740125BA
:1006720048F548E43547F54780D1AB43AA44A9453C
:1006820012076C7002800D7401253FF53FE4353E80
:10069200F53E809DAB3DAA3EA93F227B007A0079C0
:0206A200002234
:00000001FF
